{
    "contractName": "LostAndFound",
    "abi": [
        {
            "anonymous": false,
            "inputs": [
                {
                    "indexed": false,
                    "internalType": "uint256",
                    "name": "id",
                    "type": "uint256"
                },
                {
                    "indexed": false,
                    "internalType": "address",
                    "name": "reporter",
                    "type": "address"
                },
                {
                    "indexed": false,
                    "internalType": "string",
                    "name": "description",
                    "type": "string"
                },
                {
                    "indexed": false,
                    "internalType": "string",
                    "name": "location",
                    "type": "string"
                },
                {
                    "indexed": false,
                    "internalType": "uint256",
                    "name": "date",
                    "type": "uint256"
                },
                {
                    "indexed": false,
                    "internalType": "string",
                    "name": "photoHash",
                    "type": "string"
                }
            ],
            "name": "FoundItemReported",
            "type": "event"
        },
        {
            "anonymous": false,
            "inputs": [
                {
                    "indexed": false,
                    "internalType": "uint256",
                    "name": "lostItemId",
                    "type": "uint256"
                },
                {
                    "indexed": false,
                    "internalType": "uint256",
                    "name": "foundItemId",
                    "type": "uint256"
                },
                {
                    "indexed": false,
                    "internalType": "address",
                    "name": "lostReporter",
                    "type": "address"
                },
                {
                    "indexed": false,
                    "internalType": "address",
                    "name": "foundReporter",
                    "type": "address"
                }
            ],
            "name": "ItemMatched",
            "type": "event"
        },
        {
            "anonymous": false,
            "inputs": [
                {
                    "indexed": false,
                    "internalType": "uint256",
                    "name": "id",
                    "type": "uint256"
                },
                {
                    "indexed": false,
                    "internalType": "address",
                    "name": "reporter",
                    "type": "address"
                },
                {
                    "indexed": false,
                    "internalType": "string",
                    "name": "description",
                    "type": "string"
                },
                {
                    "indexed": false,
                    "internalType": "string",
                    "name": "location",
                    "type": "string"
                },
                {
                    "indexed": false,
                    "internalType": "uint256",
                    "name": "date",
                    "type": "uint256"
                },
                {
                    "indexed": false,
                    "internalType": "string",
                    "name": "photoHash",
                    "type": "string"
                }
            ],
            "name": "LostItemReported",
            "type": "event"
        },
        {
            "inputs": [],
            "name": "foundItemCount",
            "outputs": [
                {
                    "internalType": "uint256",
                    "name": "",
                    "type": "uint256"
                }
            ],
            "stateMutability": "view",
            "type": "function"
        },
        {
            "inputs": [
                {
                    "internalType": "uint256",
                    "name": "",
                    "type": "uint256"
                }
            ],
            "name": "foundItems",
            "outputs": [
                {
                    "internalType": "uint256",
                    "name": "id",
                    "type": "uint256"
                },
                {
                    "internalType": "address",
                    "name": "reporter",
                    "type": "address"
                },
                {
                    "internalType": "bytes32",
                    "name": "descriptionHash",
                    "type": "bytes32"
                },
                {
                    "internalType": "bytes32",
                    "name": "locationHash",
                    "type": "bytes32"
                },
                {
                    "internalType": "uint256",
                    "name": "date",
                    "type": "uint256"
                },
                {
                    "internalType": "string",
                    "name": "photoHash",
                    "type": "string"
                },
                {
                    "internalType": "bool",
                    "name": "isResolved",
                    "type": "bool"
                }
            ],
            "stateMutability": "view",
            "type": "function"
        },
        {
            "inputs": [],
            "name": "lostItemCount",
            "outputs": [
                {
                    "internalType": "uint256",
                    "name": "",
                    "type": "uint256"
                }
            ],
            "stateMutability": "view",
            "type": "function"
        },
        {
            "inputs": [
                {
                    "internalType": "uint256",
                    "name": "",
                    "type": "uint256"
                }
            ],
            "name": "lostItems",
            "outputs": [
                {
                    "internalType": "uint256",
                    "name": "id",
                    "type": "uint256"
                },
                {
                    "internalType": "address",
                    "name": "reporter",
                    "type": "address"
                },
                {
                    "internalType": "bytes32",
                    "name": "descriptionHash",
                    "type": "bytes32"
                },
                {
                    "internalType": "bytes32",
                    "name": "locationHash",
                    "type": "bytes32"
                },
                {
                    "internalType": "uint256",
                    "name": "date",
                    "type": "uint256"
                },
                {
                    "internalType": "string",
                    "name": "photoHash",
                    "type": "string"
                },
                {
                    "internalType": "bool",
                    "name": "isResolved",
                    "type": "bool"
                }
            ],
            "stateMutability": "view",
            "type": "function"
        },
        {
            "inputs": [
                {
                    "internalType": "uint256",
                    "name": "_lostItemId",
                    "type": "uint256"
                },
                {
                    "internalType": "uint256",
                    "name": "_foundItemId",
                    "type": "uint256"
                }
            ],
            "name": "matchItems",
            "outputs": [],
            "stateMutability": "nonpayable",
            "type": "function"
        },
        {
            "inputs": [
                {
                    "internalType": "string",
                    "name": "_description",
                    "type": "string"
                },
                {
                    "internalType": "string",
                    "name": "_location",
                    "type": "string"
                },
                {
                    "internalType": "uint256",
                    "name": "_date",
                    "type": "uint256"
                },
                {
                    "internalType": "string",
                    "name": "_photoHash",
                    "type": "string"
                }
            ],
            "name": "reportFoundItem",
            "outputs": [],
            "stateMutability": "nonpayable",
            "type": "function"
        },
        {
            "inputs": [
                {
                    "internalType": "string",
                    "name": "_description",
                    "type": "string"
                },
                {
                    "internalType": "string",
                    "name": "_location",
                    "type": "string"
                },
                {
                    "internalType": "uint256",
                    "name": "_date",
                    "type": "uint256"
                },
                {
                    "internalType": "string",
                    "name": "_photoHash",
                    "type": "string"
                }
            ],
            "name": "reportLostItem",
            "outputs": [],
            "stateMutability": "nonpayable",
            "type": "function"
        },
        {
            "inputs": [
                {
                    "internalType": "uint256",
                    "name": "_lostItemId",
                    "type": "uint256"
                },
                {
                    "internalType": "uint256",
                    "name": "_foundItemId",
                    "type": "uint256"
                }
            ],
            "name": "verifyOwnership",
            "outputs": [
                {
                    "internalType": "bool",
                    "name": "",
                    "type": "bool"
                }
            ],
            "stateMutability": "view",
            "type": "function"
        }
    ],
    "bytecode": "60808060405234601c575f80555f600155610a3f90816100218239f35b5f80fdfe6080806040526004361015610012575f80fd5b5f3560e01c9081632b935dfc146103cd5750806332d36eab146103b157806346e382b11461034a5780634ab556a31461032d57806362e67053146102da5780639e8d43a214610272578063e7c46715146101765763ef5ef5af14610074575f80fd5b34610172577f0b3672c3d97352915e8cf07783f4026865e5708563952a429eeb662554b8d50861016d6100a636610748565b9061015c6040959394955160208101906100da6020828a5180838d01875e81015f838201520301601f1981018352826105c7565b51902060405160208101906101096020828a5180838d01875e81015f838201520301601f1981018352826105c7565b5190206101165f5461081f565b90815f556040519261012784610597565b828452336020850152604084015260608301528360808301528460a08301525f60c08301525f52600260205260405f20610841565b5f54936040519586953390876109b9565b0390a1005b5f80fd5b34610172577f690166083e07d0f33c430b7c1300a34553071687b2463e7e019a7439a3c15cc961016d6101a836610748565b906102606040959394955160208101906101dc6020828a5180838d01875e81015f838201520301601f1981018352826105c7565b519020604051602081019061020b6020828a5180838d01875e81015f838201520301601f1981018352826105c7565b51902061021960015461081f565b90816001556040519261022b84610597565b828452336020850152604084015260608301528360808301528460a08301525f60c08301525f52600360205260405f20610841565b600154936040519586953390876109b9565b34610172576020366003190112610172576004355f52600260205260405f2080546102d660018060a01b0360018401541692600281015490600381015460048201549060ff60066102c5600586016105e9565b9401541693604051978897886106ad565b0390f35b34610172576020366003190112610172576004355f52600360205260405f2080546102d660018060a01b0360018401541692600281015490600381015460048201549060ff60066102c5600586016105e9565b34610172575f366003190112610172576020600154604051908152f35b3461017257602061035a36610549565b905f526002825261036d60405f206107bb565b905f526003825261038060405f206107bb565b6040820151604082015114918261039e575b50506040519015158152f35b6060919250810151910151148280610392565b34610172575f3660031901126101725760205f54604051908152f35b34610172576103db36610549565b91815f52600260205260ff600660405f200154166105075750815f52600360205260ff600660405f200154166104c257805f52600260205260405f2090825f52600360205260405f20926002830154600285015414806104b1575b61043c57005b7fdb720ea8438790b254784aed16764bc449cc0c0d6f065692563cdf2c63cfc5999383600660809501600160ff1982541617905560068201600160ff198254161790556001808060a01b0391015416906001808060a01b039101541691604051938452602084015260408301526060820152a1005b506003830154600385015414610436565b60405162461bcd60e51b815260206004820152601f60248201527f466f756e64206974656d20697320616c7265616479207265736f6c7665642e006044820152606490fd5b62461bcd60e51b815260206004820152601e60248201527f4c6f7374206974656d20697320616c7265616479207265736f6c7665642e00006044820152606490fd5b6040906003190112610172576004359060243590565b90600182811c9216801561058d575b602083101461057957565b634e487b7160e01b5f52602260045260245ffd5b91607f169161056e565b60e0810190811067ffffffffffffffff8211176105b357604052565b634e487b7160e01b5f52604160045260245ffd5b90601f8019910116810190811067ffffffffffffffff8211176105b357604052565b9060405191825f8254926105fc8461055f565b80845293600181169081156106675750600114610623575b50610621925003836105c7565b565b90505f9291925260205f20905f915b81831061064b575050906020610621928201015f610614565b6020919350806001915483858901015201910190918492610632565b90506020925061062194915060ff191682840152151560051b8201015f610614565b805180835260209291819084018484015e5f828201840152601f01601f1916010190565b959260c095926106ea9592999899885260018060a01b0316602088015260408701526060860152608085015260e060a085015260e0840190610689565b931515910152565b81601f820112156101725780359067ffffffffffffffff82116105b35760405192610727601f8401601f1916602001856105c7565b8284526020838301011161017257815f926020809301838601378301015290565b9060806003198301126101725760043567ffffffffffffffff81116101725782610774916004016106f2565b9160243567ffffffffffffffff81116101725781610794916004016106f2565b91604435916064359067ffffffffffffffff8211610172576107b8916004016106f2565b90565b906040516107c881610597565b60c060ff600683958054855260018060a01b036001820154166020860152600281015460408601526003810154606086015260048101546080860152610810600582016105e9565b60a08601520154161515910152565b5f19811461082d5760010190565b634e487b7160e01b5f52601160045260245ffd5b815181556001810160018060a01b036020840151166bffffffffffffffffffffffff60a01b8254161790556040820151600282015560608201516003820155608082015160048201556005810160a083015180519067ffffffffffffffff82116105b3576108af835461055f565b601f8111610974575b50602090601f831160011461090b5791806006949260c096945f92610900575b50508160011b915f199060031b1c19161790555b01910151151560ff80198354169116179055565b015190505f806108d8565b90601f19831691845f52815f20925f5b81811061095c575092600192859260c098966006989610610944575b505050811b0190556108ec565b01515f1960f88460031b161c191690555f8080610937565b9293602060018192878601518155019501930161091b565b835f5260205f20601f840160051c810191602085106109af575b601f0160051c01905b8181106109a457506108b8565b5f8155600101610997565b909150819061098e565b926109e8906109f6936107b8989693865260018060a01b0316602086015260c0604086015260c0850190610689565b908382036060850152610689565b92608082015260a081840391015261068956fea2646970667358221220b4b4b749b9322c59d93b57d0f52b95d410a4b52ab400cbc188b87f4b6039de7864736f6c634300081c0033",
    "sourcePath": "c:/Users/Nithesh/lostify/contracts/LostAndFound.sol",
    "compiler": {
        "name": "solc",
        "version": "0.8.28+commit.7893614a"
    },
    "functionHashes": {
        "foundItemCount()": "4ab556a3",
        "foundItems(uint256)": "62e67053",
        "lostItemCount()": "32d36eab",
        "lostItems(uint256)": "9e8d43a2",
        "matchItems(uint256,uint256)": "2b935dfc",
        "reportFoundItem(string,string,uint256,string)": "e7c46715",
        "reportLostItem(string,string,uint256,string)": "ef5ef5af",
        "verifyOwnership(uint256,uint256)": "46e382b1"
    },
    "gasEstimates": {
        "creation": {
            "codeDepositCost": "524600",
            "executionCost": "10573",
            "totalCost": "535173"
        },
        "external": {
            "foundItemCount()": "2322",
            "foundItems(uint256)": "infinite",
            "lostItemCount()": "2277",
            "lostItems(uint256)": "infinite",
            "matchItems(uint256,uint256)": "67749",
            "reportFoundItem(string,string,uint256,string)": "infinite",
            "reportLostItem(string,string,uint256,string)": "infinite",
            "verifyOwnership(uint256,uint256)": "infinite"
        }
    }
}