{
  "_format": "hh-sol-artifact-1",
  "contractName": "LostAndFound",
  "sourceName": "contracts/LostAndFound.sol",
  "abi": [
    {
      "anonymous": false,
      "inputs": [
        {
          "indexed": false,
          "internalType": "uint256",
          "name": "id",
          "type": "uint256"
        },
        {
          "indexed": false,
          "internalType": "address",
          "name": "reporter",
          "type": "address"
        },
        {
          "indexed": false,
          "internalType": "string",
          "name": "description",
          "type": "string"
        },
        {
          "indexed": false,
          "internalType": "string",
          "name": "location",
          "type": "string"
        },
        {
          "indexed": false,
          "internalType": "uint256",
          "name": "date",
          "type": "uint256"
        },
        {
          "indexed": false,
          "internalType": "string",
          "name": "photoHash",
          "type": "string"
        }
      ],
      "name": "FoundItemReported",
      "type": "event"
    },
    {
      "anonymous": false,
      "inputs": [
        {
          "indexed": false,
          "internalType": "uint256",
          "name": "lostItemId",
          "type": "uint256"
        },
        {
          "indexed": false,
          "internalType": "uint256",
          "name": "foundItemId",
          "type": "uint256"
        },
        {
          "indexed": false,
          "internalType": "address",
          "name": "lostReporter",
          "type": "address"
        },
        {
          "indexed": false,
          "internalType": "address",
          "name": "foundReporter",
          "type": "address"
        }
      ],
      "name": "ItemMatched",
      "type": "event"
    },
    {
      "anonymous": false,
      "inputs": [
        {
          "indexed": false,
          "internalType": "uint256",
          "name": "id",
          "type": "uint256"
        },
        {
          "indexed": false,
          "internalType": "address",
          "name": "reporter",
          "type": "address"
        },
        {
          "indexed": false,
          "internalType": "string",
          "name": "description",
          "type": "string"
        },
        {
          "indexed": false,
          "internalType": "string",
          "name": "location",
          "type": "string"
        },
        {
          "indexed": false,
          "internalType": "uint256",
          "name": "date",
          "type": "uint256"
        },
        {
          "indexed": false,
          "internalType": "string",
          "name": "photoHash",
          "type": "string"
        }
      ],
      "name": "LostItemReported",
      "type": "event"
    },
    {
      "inputs": [],
      "name": "foundItemCount",
      "outputs": [
        {
          "internalType": "uint256",
          "name": "",
          "type": "uint256"
        }
      ],
      "stateMutability": "view",
      "type": "function"
    },
    {
      "inputs": [
        {
          "internalType": "uint256",
          "name": "",
          "type": "uint256"
        }
      ],
      "name": "foundItems",
      "outputs": [
        {
          "internalType": "uint256",
          "name": "id",
          "type": "uint256"
        },
        {
          "internalType": "address",
          "name": "reporter",
          "type": "address"
        },
        {
          "internalType": "bytes32",
          "name": "descriptionHash",
          "type": "bytes32"
        },
        {
          "internalType": "bytes32",
          "name": "locationHash",
          "type": "bytes32"
        },
        {
          "internalType": "uint256",
          "name": "date",
          "type": "uint256"
        },
        {
          "internalType": "string",
          "name": "photoHash",
          "type": "string"
        },
        {
          "internalType": "bool",
          "name": "isResolved",
          "type": "bool"
        }
      ],
      "stateMutability": "view",
      "type": "function"
    },
    {
      "inputs": [],
      "name": "lostItemCount",
      "outputs": [
        {
          "internalType": "uint256",
          "name": "",
          "type": "uint256"
        }
      ],
      "stateMutability": "view",
      "type": "function"
    },
    {
      "inputs": [
        {
          "internalType": "uint256",
          "name": "",
          "type": "uint256"
        }
      ],
      "name": "lostItems",
      "outputs": [
        {
          "internalType": "uint256",
          "name": "id",
          "type": "uint256"
        },
        {
          "internalType": "address",
          "name": "reporter",
          "type": "address"
        },
        {
          "internalType": "bytes32",
          "name": "descriptionHash",
          "type": "bytes32"
        },
        {
          "internalType": "bytes32",
          "name": "locationHash",
          "type": "bytes32"
        },
        {
          "internalType": "uint256",
          "name": "date",
          "type": "uint256"
        },
        {
          "internalType": "string",
          "name": "photoHash",
          "type": "string"
        },
        {
          "internalType": "bool",
          "name": "isResolved",
          "type": "bool"
        }
      ],
      "stateMutability": "view",
      "type": "function"
    },
    {
      "inputs": [
        {
          "internalType": "uint256",
          "name": "_lostItemId",
          "type": "uint256"
        },
        {
          "internalType": "uint256",
          "name": "_foundItemId",
          "type": "uint256"
        }
      ],
      "name": "matchItems",
      "outputs": [],
      "stateMutability": "nonpayable",
      "type": "function"
    },
    {
      "inputs": [
        {
          "internalType": "string",
          "name": "_description",
          "type": "string"
        },
        {
          "internalType": "string",
          "name": "_location",
          "type": "string"
        },
        {
          "internalType": "uint256",
          "name": "_date",
          "type": "uint256"
        },
        {
          "internalType": "string",
          "name": "_photoHash",
          "type": "string"
        }
      ],
      "name": "reportFoundItem",
      "outputs": [],
      "stateMutability": "nonpayable",
      "type": "function"
    },
    {
      "inputs": [
        {
          "internalType": "string",
          "name": "_description",
          "type": "string"
        },
        {
          "internalType": "string",
          "name": "_location",
          "type": "string"
        },
        {
          "internalType": "uint256",
          "name": "_date",
          "type": "uint256"
        },
        {
          "internalType": "string",
          "name": "_photoHash",
          "type": "string"
        }
      ],
      "name": "reportLostItem",
      "outputs": [],
      "stateMutability": "nonpayable",
      "type": "function"
    },
    {
      "inputs": [
        {
          "internalType": "uint256",
          "name": "_lostItemId",
          "type": "uint256"
        },
        {
          "internalType": "uint256",
          "name": "_foundItemId",
          "type": "uint256"
        }
      ],
      "name": "verifyOwnership",
      "outputs": [
        {
          "internalType": "bool",
          "name": "",
          "type": "bool"
        }
      ],
      "stateMutability": "view",
      "type": "function"
    }
  ],
  "bytecode": "0x608060405260008055600060015534801561001957600080fd5b506115bf806100296000396000f3fe608060405234801561001057600080fd5b50600436106100885760003560e01c806362e670531161005b57806362e67053146101155780639e8d43a21461014b578063e7c4671514610181578063ef5ef5af1461019d57610088565b80632b935dfc1461008d57806332d36eab146100a957806346e382b1146100c75780634ab556a3146100f7575b600080fd5b6100a760048036038101906100a29190610c31565b6101b9565b005b6100b16103a4565b6040516100be9190610c80565b60405180910390f35b6100e160048036038101906100dc9190610c31565b6103aa565b6040516100ee9190610cb6565b60405180910390f35b6100ff61066d565b60405161010c9190610c80565b60405180910390f35b61012f600480360381019061012a9190610cd1565b610673565b6040516101429796959493929190610de8565b60405180910390f35b61016560048036038101906101609190610cd1565b61076a565b6040516101789796959493929190610de8565b60405180910390f35b61019b60048036038101906101969190610f93565b610861565b005b6101b760048036038101906101b29190610f93565b610a25565b005b600015156002600084815260200190815260200160002060060160009054906101000a900460ff16151514610223576040517f08c379a000000000000000000000000000000000000000000000000000000000815260040161021a9061109a565b60405180910390fd5b600015156003600083815260200190815260200160002060060160009054906101000a900460ff1615151461028d576040517f08c379a000000000000000000000000000000000000000000000000000000000815260040161028490611106565b60405180910390fd5b60006002600084815260200190815260200160002090506000600360008481526020019081526020016000209050806002015482600201541480156102d9575080600301548260030154145b1561039e5760018260060160006101000a81548160ff02191690831515021790555060018160060160006101000a81548160ff0219169083151502179055507fdb720ea8438790b254784aed16764bc449cc0c0d6f065692563cdf2c63cfc59984848460010160009054906101000a900473ffffffffffffffffffffffffffffffffffffffff168460010160009054906101000a900473ffffffffffffffffffffffffffffffffffffffff166040516103959493929190611126565b60405180910390a15b50505050565b60005481565b600080600260008581526020019081526020016000206040518060e0016040529081600082015481526020016001820160009054906101000a900473ffffffffffffffffffffffffffffffffffffffff1673ffffffffffffffffffffffffffffffffffffffff1673ffffffffffffffffffffffffffffffffffffffff1681526020016002820154815260200160038201548152602001600482015481526020016005820180546104599061119a565b80601f01602080910402602001604051908101604052809291908181526020018280546104859061119a565b80156104d25780601f106104a7576101008083540402835291602001916104d2565b820191906000526020600020905b8154815290600101906020018083116104b557829003601f168201915b505050505081526020016006820160009054906101000a900460ff16151515158152505090506000600360008581526020019081526020016000206040518060e0016040529081600082015481526020016001820160009054906101000a900473ffffffffffffffffffffffffffffffffffffffff1673ffffffffffffffffffffffffffffffffffffffff1673ffffffffffffffffffffffffffffffffffffffff1681526020016002820154815260200160038201548152602001600482015481526020016005820180546105a69061119a565b80601f01602080910402602001604051908101604052809291908181526020018280546105d29061119a565b801561061f5780601f106105f45761010080835404028352916020019161061f565b820191906000526020600020905b81548152906001019060200180831161060257829003601f168201915b505050505081526020016006820160009054906101000a900460ff161515151581525050905080604001518260400151148015610663575080606001518260600151145b9250505092915050565b60015481565b60036020528060005260406000206000915090508060000154908060010160009054906101000a900473ffffffffffffffffffffffffffffffffffffffff16908060020154908060030154908060040154908060050180546106d49061119a565b80601f01602080910402602001604051908101604052809291908181526020018280546107009061119a565b801561074d5780601f106107225761010080835404028352916020019161074d565b820191906000526020600020905b81548152906001019060200180831161073057829003601f168201915b5050505050908060060160009054906101000a900460ff16905087565b60026020528060005260406000206000915090508060000154908060010160009054906101000a900473ffffffffffffffffffffffffffffffffffffffff16908060020154908060030154908060040154908060050180546107cb9061119a565b80601f01602080910402602001604051908101604052809291908181526020018280546107f79061119a565b80156108445780601f1061081957610100808354040283529160200191610844565b820191906000526020600020905b81548152906001019060200180831161082757829003601f168201915b5050505050908060060160009054906101000a900460ff16905087565b6000846040516020016108749190611207565b60405160208183030381529060405280519060200120905060008460405160200161089f9190611207565b604051602081830303815290604052805190602001209050600160008154809291906108ca9061124d565b91905055506040518060e0016040528060015481526020013373ffffffffffffffffffffffffffffffffffffffff168152602001838152602001828152602001858152602001848152602001600015158152506003600060015481526020019081526020016000206000820151816000015560208201518160010160006101000a81548173ffffffffffffffffffffffffffffffffffffffff021916908373ffffffffffffffffffffffffffffffffffffffff16021790555060408201518160020155606082015181600301556080820151816004015560a08201518160050190816109b69190611441565b5060c08201518160060160006101000a81548160ff0219169083151502179055509050507f690166083e07d0f33c430b7c1300a34553071687b2463e7e019a7439a3c15cc96001543388888888604051610a1596959493929190611513565b60405180910390a1505050505050565b600084604051602001610a389190611207565b604051602081830303815290604052805190602001209050600084604051602001610a639190611207565b604051602081830303815290604052805190602001209050600080815480929190610a8d9061124d565b91905055506040518060e0016040528060005481526020013373ffffffffffffffffffffffffffffffffffffffff1681526020018381526020018281526020018581526020018481526020016000151581525060026000805481526020019081526020016000206000820151816000015560208201518160010160006101000a81548173ffffffffffffffffffffffffffffffffffffffff021916908373ffffffffffffffffffffffffffffffffffffffff16021790555060408201518160020155606082015181600301556080820151816004015560a0820151816005019081610b789190611441565b5060c08201518160060160006101000a81548160ff0219169083151502179055509050507f0b3672c3d97352915e8cf07783f4026865e5708563952a429eeb662554b8d5086000543388888888604051610bd796959493929190611513565b60405180910390a1505050505050565b6000604051905090565b600080fd5b600080fd5b6000819050919050565b610c0e81610bfb565b8114610c1957600080fd5b50565b600081359050610c2b81610c05565b92915050565b60008060408385031215610c4857610c47610bf1565b5b6000610c5685828601610c1c565b9250506020610c6785828601610c1c565b9150509250929050565b610c7a81610bfb565b82525050565b6000602082019050610c956000830184610c71565b92915050565b60008115159050919050565b610cb081610c9b565b82525050565b6000602082019050610ccb6000830184610ca7565b92915050565b600060208284031215610ce757610ce6610bf1565b5b6000610cf584828501610c1c565b91505092915050565b600073ffffffffffffffffffffffffffffffffffffffff82169050919050565b6000610d2982610cfe565b9050919050565b610d3981610d1e565b82525050565b6000819050919050565b610d5281610d3f565b82525050565b600081519050919050565b600082825260208201905092915050565b60005b83811015610d92578082015181840152602081019050610d77565b60008484015250505050565b6000601f19601f8301169050919050565b6000610dba82610d58565b610dc48185610d63565b9350610dd4818560208601610d74565b610ddd81610d9e565b840191505092915050565b600060e082019050610dfd600083018a610c71565b610e0a6020830189610d30565b610e176040830188610d49565b610e246060830187610d49565b610e316080830186610c71565b81810360a0830152610e438185610daf565b9050610e5260c0830184610ca7565b98975050505050505050565b600080fd5b600080fd5b7f4e487b7100000000000000000000000000000000000000000000000000000000600052604160045260246000fd5b610ea082610d9e565b810181811067ffffffffffffffff82111715610ebf57610ebe610e68565b5b80604052505050565b6000610ed2610be7565b9050610ede8282610e97565b919050565b600067ffffffffffffffff821115610efe57610efd610e68565b5b610f0782610d9e565b9050602081019050919050565b82818337600083830152505050565b6000610f36610f3184610ee3565b610ec8565b905082815260208101848484011115610f5257610f51610e63565b5b610f5d848285610f14565b509392505050565b600082601f830112610f7a57610f79610e5e565b5b8135610f8a848260208601610f23565b91505092915050565b60008060008060808587031215610fad57610fac610bf1565b5b600085013567ffffffffffffffff811115610fcb57610fca610bf6565b5b610fd787828801610f65565b945050602085013567ffffffffffffffff811115610ff857610ff7610bf6565b5b61100487828801610f65565b935050604061101587828801610c1c565b925050606085013567ffffffffffffffff81111561103657611035610bf6565b5b61104287828801610f65565b91505092959194509250565b7f4c6f7374206974656d20697320616c7265616479207265736f6c7665642e0000600082015250565b6000611084601e83610d63565b915061108f8261104e565b602082019050919050565b600060208201905081810360008301526110b381611077565b9050919050565b7f466f756e64206974656d20697320616c7265616479207265736f6c7665642e00600082015250565b60006110f0601f83610d63565b91506110fb826110ba565b602082019050919050565b6000602082019050818103600083015261111f816110e3565b9050919050565b600060808201905061113b6000830187610c71565b6111486020830186610c71565b6111556040830185610d30565b6111626060830184610d30565b95945050505050565b7f4e487b7100000000000000000000000000000000000000000000000000000000600052602260045260246000fd5b600060028204905060018216806111b257607f821691505b6020821081036111c5576111c461116b565b5b50919050565b600081905092915050565b60006111e182610d58565b6111eb81856111cb565b93506111fb818560208601610d74565b80840191505092915050565b600061121382846111d6565b915081905092915050565b7f4e487b7100000000000000000000000000000000000000000000000000000000600052601160045260246000fd5b600061125882610bfb565b91507fffffffffffffffffffffffffffffffffffffffffffffffffffffffffffffffff820361128a5761128961121e565b5b600182019050919050565b60008190508160005260206000209050919050565b60006020601f8301049050919050565b600082821b905092915050565b6000600883026112f77fffffffffffffffffffffffffffffffffffffffffffffffffffffffffffffffff826112ba565b61130186836112ba565b95508019841693508086168417925050509392505050565b6000819050919050565b600061133e61133961133484610bfb565b611319565b610bfb565b9050919050565b6000819050919050565b61135883611323565b61136c61136482611345565b8484546112c7565b825550505050565b600090565b611381611374565b61138c81848461134f565b505050565b5b818110156113b0576113a5600082611379565b600181019050611392565b5050565b601f8211156113f5576113c681611295565b6113cf846112aa565b810160208510156113de578190505b6113f26113ea856112aa565b830182611391565b50505b505050565b600082821c905092915050565b6000611418600019846008026113fa565b1980831691505092915050565b60006114318383611407565b9150826002028217905092915050565b61144a82610d58565b67ffffffffffffffff81111561146357611462610e68565b5b61146d825461119a565b6114788282856113b4565b600060209050601f8311600181146114ab5760008415611499578287015190505b6114a38582611425565b86555061150b565b601f1984166114b986611295565b60005b828110156114e1578489015182556001820191506020850194506020810190506114bc565b868310156114fe57848901516114fa601f891682611407565b8355505b6001600288020188555050505b505050505050565b600060c0820190506115286000830189610c71565b6115356020830188610d30565b81810360408301526115478187610daf565b9050818103606083015261155b8186610daf565b905061156a6080830185610c71565b81810360a083015261157c8184610daf565b905097965050505050505056fea2646970667358221220095a1d2f3983cfb64ea3de4deba3fc9c68340384e58f314d2b97302c3b6604bf64736f6c63430008130033",
  "linkReferences": {},
  "deployedLinkReferences": {}
}