{
  "_format": "hh-sol-artifact-1",
  "contractName": "LostAndFound",
  "sourceName": "src/contracts/LostAndFound.sol",
  "abi": [
    {
      "anonymous": false,
      "inputs": [
        {
          "indexed": true,
          "internalType": "uint256",
          "name": "id",
          "type": "uint256"
        },
        {
          "indexed": true,
          "internalType": "address",
          "name": "finder",
          "type": "address"
        }
      ],
      "name": "ItemFound",
      "type": "event"
    },
    {
      "anonymous": false,
      "inputs": [
        {
          "indexed": true,
          "internalType": "uint256",
          "name": "id",
          "type": "uint256"
        },
        {
          "indexed": true,
          "internalType": "address",
          "name": "owner",
          "type": "address"
        },
        {
          "indexed": false,
          "internalType": "string",
          "name": "name",
          "type": "string"
        }
      ],
      "name": "ItemReported",
      "type": "event"
    },
    {
      "anonymous": false,
      "inputs": [
        {
          "indexed": true,
          "internalType": "uint256",
          "name": "id",
          "type": "uint256"
        },
        {
          "indexed": true,
          "internalType": "address",
          "name": "finder",
          "type": "address"
        },
        {
          "indexed": false,
          "internalType": "uint256",
          "name": "bounty",
          "type": "uint256"
        }
      ],
      "name": "ItemReturned",
      "type": "event"
    },
    {
      "inputs": [
        {
          "internalType": "uint256",
          "name": "_itemId",
          "type": "uint256"
        },
        {
          "internalType": "address",
          "name": "_finder",
          "type": "address"
        }
      ],
      "name": "confirmReturn",
      "outputs": [],
      "stateMutability": "nonpayable",
      "type": "function"
    },
    {
      "inputs": [
        {
          "internalType": "uint256",
          "name": "_itemId",
          "type": "uint256"
        }
      ],
      "name": "getItem",
      "outputs": [
        {
          "components": [
            {
              "internalType": "uint256",
              "name": "id",
              "type": "uint256"
            },
            {
              "internalType": "address",
              "name": "owner",
              "type": "address"
            },
            {
              "internalType": "string",
              "name": "name",
              "type": "string"
            },
            {
              "internalType": "string",
              "name": "category",
              "type": "string"
            },
            {
              "internalType": "string",
              "name": "location",
              "type": "string"
            },
            {
              "internalType": "string",
              "name": "imageUrl",
              "type": "string"
            },
            {
              "internalType": "uint256",
              "name": "bountyAmount",
              "type": "uint256"
            },
            {
              "internalType": "bool",
              "name": "isFound",
              "type": "bool"
            },
            {
              "internalType": "bool",
              "name": "isReturned",
              "type": "bool"
            },
            {
              "internalType": "string",
              "name": "date",
              "type": "string"
            }
          ],
          "internalType": "struct LostAndFound.Item",
          "name": "",
          "type": "tuple"
        }
      ],
      "stateMutability": "view",
      "type": "function"
    },
    {
      "inputs": [
        {
          "internalType": "address",
          "name": "_user",
          "type": "address"
        }
      ],
      "name": "getUserFoundItems",
      "outputs": [
        {
          "internalType": "uint256[]",
          "name": "",
          "type": "uint256[]"
        }
      ],
      "stateMutability": "view",
      "type": "function"
    },
    {
      "inputs": [
        {
          "internalType": "address",
          "name": "_user",
          "type": "address"
        }
      ],
      "name": "getUserLostItems",
      "outputs": [
        {
          "internalType": "uint256[]",
          "name": "",
          "type": "uint256[]"
        }
      ],
      "stateMutability": "view",
      "type": "function"
    },
    {
      "inputs": [
        {
          "internalType": "uint256",
          "name": "",
          "type": "uint256"
        }
      ],
      "name": "items",
      "outputs": [
        {
          "internalType": "uint256",
          "name": "id",
          "type": "uint256"
        },
        {
          "internalType": "address",
          "name": "owner",
          "type": "address"
        },
        {
          "internalType": "string",
          "name": "name",
          "type": "string"
        },
        {
          "internalType": "string",
          "name": "category",
          "type": "string"
        },
        {
          "internalType": "string",
          "name": "location",
          "type": "string"
        },
        {
          "internalType": "string",
          "name": "imageUrl",
          "type": "string"
        },
        {
          "internalType": "uint256",
          "name": "bountyAmount",
          "type": "uint256"
        },
        {
          "internalType": "bool",
          "name": "isFound",
          "type": "bool"
        },
        {
          "internalType": "bool",
          "name": "isReturned",
          "type": "bool"
        },
        {
          "internalType": "string",
          "name": "date",
          "type": "string"
        }
      ],
      "stateMutability": "view",
      "type": "function"
    },
    {
      "inputs": [
        {
          "internalType": "uint256",
          "name": "_itemId",
          "type": "uint256"
        },
        {
          "internalType": "string",
          "name": "_location",
          "type": "string"
        },
        {
          "internalType": "string",
          "name": "_date",
          "type": "string"
        }
      ],
      "name": "reportFoundItem",
      "outputs": [],
      "stateMutability": "nonpayable",
      "type": "function"
    },
    {
      "inputs": [
        {
          "internalType": "string",
          "name": "_name",
          "type": "string"
        },
        {
          "internalType": "string",
          "name": "_category",
          "type": "string"
        },
        {
          "internalType": "string",
          "name": "_location",
          "type": "string"
        },
        {
          "internalType": "string",
          "name": "_imageUrl",
          "type": "string"
        },
        {
          "internalType": "string",
          "name": "_date",
          "type": "string"
        }
      ],
      "name": "reportLostItem",
      "outputs": [],
      "stateMutability": "payable",
      "type": "function"
    },
    {
      "inputs": [
        {
          "internalType": "address",
          "name": "",
          "type": "address"
        },
        {
          "internalType": "uint256",
          "name": "",
          "type": "uint256"
        }
      ],
      "name": "userFoundItems",
      "outputs": [
        {
          "internalType": "uint256",
          "name": "",
          "type": "uint256"
        }
      ],
      "stateMutability": "view",
      "type": "function"
    },
    {
      "inputs": [
        {
          "internalType": "address",
          "name": "",
          "type": "address"
        },
        {
          "internalType": "uint256",
          "name": "",
          "type": "uint256"
        }
      ],
      "name": "userLostItems",
      "outputs": [
        {
          "internalType": "uint256",
          "name": "",
          "type": "uint256"
        }
      ],
      "stateMutability": "view",
      "type": "function"
    }
  ],
  "bytecode": "0x60806040526000805534801561001457600080fd5b50612036806100246000396000f3fe6080604052600436106100865760003560e01c806361354b561161005957806361354b561461016b578063bfb231d2146101a8578063c6ed3ac1146101ee578063e10f65011461022b578063ef9945971461025457610086565b806302eb69c51461008b57806318fd77c6146100b457806324eecced146100f15780633129e7731461012e575b600080fd5b34801561009757600080fd5b506100b260048036038101906100ad91906112a3565b610270565b005b3480156100c057600080fd5b506100db60048036038101906100d691906112e3565b61048a565b6040516100e891906113ce565b60405180910390f35b3480156100fd57600080fd5b50610118600480360381019061011391906112e3565b610521565b60405161012591906113ce565b60405180910390f35b34801561013a57600080fd5b50610155600480360381019061015091906113f0565b6105b8565b60405161016291906115cd565b60405180910390f35b34801561017757600080fd5b50610192600480360381019061018d91906115ef565b6109a5565b60405161019f919061163e565b60405180910390f35b3480156101b457600080fd5b506101cf60048036038101906101ca91906113f0565b6109d6565b6040516101e59a999897969594939291906116c1565b60405180910390f35b3480156101fa57600080fd5b50610215600480360381019061021091906115ef565b610d0c565b604051610222919061163e565b60405180910390f35b34801561023757600080fd5b50610252600480360381019061024d91906118b5565b610d3d565b005b61026e60048036038101906102699190611940565b610eee565b005b6000548211156102b5576040517f08c379a00000000000000000000000000000000000000000000000000000000081526004016102ac90611a93565b60405180910390fd5b60006001600084815260200190815260200160002090508060010160009054906101000a900473ffffffffffffffffffffffffffffffffffffffff1673ffffffffffffffffffffffffffffffffffffffff163373ffffffffffffffffffffffffffffffffffffffff161461035e576040517f08c379a000000000000000000000000000000000000000000000000000000000815260040161035590611aff565b60405180910390fd5b8060070160009054906101000a900460ff16801561038b57508060070160019054906101000a900460ff16155b6103ca576040517f08c379a00000000000000000000000000000000000000000000000000000000081526004016103c190611b6b565b60405180910390fd5b60018160070160016101000a81548160ff0219169083151502179055508173ffffffffffffffffffffffffffffffffffffffff166108fc82600601549081150290604051600060405180830381858888f19350505050158015610431573d6000803e3d6000fd5b508173ffffffffffffffffffffffffffffffffffffffff16837f970f102ef13f62cce0e85e0de6072b01e730491d1832d0e578e45886da3a1ef3836006015460405161047d919061163e565b60405180910390a3505050565b6060600360008373ffffffffffffffffffffffffffffffffffffffff1673ffffffffffffffffffffffffffffffffffffffff16815260200190815260200160002080548060200260200160405190810160405280929190818152602001828054801561051557602002820191906000526020600020905b815481526020019060010190808311610501575b50505050509050919050565b6060600260008373ffffffffffffffffffffffffffffffffffffffff1673ffffffffffffffffffffffffffffffffffffffff1681526020019081526020016000208054806020026020016040519081016040528092919081815260200182805480156105ac57602002820191906000526020600020905b815481526020019060010190808311610598575b50505050509050919050565b6105c061118e565b600054821115610605576040517f08c379a00000000000000000000000000000000000000000000000000000000081526004016105fc90611a93565b60405180910390fd5b6001600083815260200190815260200160002060405180610140016040529081600082015481526020016001820160009054906101000a900473ffffffffffffffffffffffffffffffffffffffff1673ffffffffffffffffffffffffffffffffffffffff1673ffffffffffffffffffffffffffffffffffffffff16815260200160028201805461069490611bba565b80601f01602080910402602001604051908101604052809291908181526020018280546106c090611bba565b801561070d5780601f106106e25761010080835404028352916020019161070d565b820191906000526020600020905b8154815290600101906020018083116106f057829003601f168201915b5050505050815260200160038201805461072690611bba565b80601f016020809104026020016040519081016040528092919081815260200182805461075290611bba565b801561079f5780601f106107745761010080835404028352916020019161079f565b820191906000526020600020905b81548152906001019060200180831161078257829003601f168201915b505050505081526020016004820180546107b890611bba565b80601f01602080910402602001604051908101604052809291908181526020018280546107e490611bba565b80156108315780601f1061080657610100808354040283529160200191610831565b820191906000526020600020905b81548152906001019060200180831161081457829003601f168201915b5050505050815260200160058201805461084a90611bba565b80601f016020809104026020016040519081016040528092919081815260200182805461087690611bba565b80156108c35780601f10610898576101008083540402835291602001916108c3565b820191906000526020600020905b8154815290600101906020018083116108a657829003601f168201915b50505050508152602001600682015481526020016007820160009054906101000a900460ff161515151581526020016007820160019054906101000a900460ff1615151515815260200160088201805461091c90611bba565b80601f016020809104026020016040519081016040528092919081815260200182805461094890611bba565b80156109955780601f1061096a57610100808354040283529160200191610995565b820191906000526020600020905b81548152906001019060200180831161097857829003601f168201915b5050505050815250509050919050565b600360205281600052604060002081815481106109c157600080fd5b90600052602060002001600091509150505481565b60016020528060005260406000206000915090508060000154908060010160009054906101000a900473ffffffffffffffffffffffffffffffffffffffff1690806002018054610a2590611bba565b80601f0160208091040260200160405190810160405280929190818152602001828054610a5190611bba565b8015610a9e5780601f10610a7357610100808354040283529160200191610a9e565b820191906000526020600020905b815481529060010190602001808311610a8157829003601f168201915b505050505090806003018054610ab390611bba565b80601f0160208091040260200160405190810160405280929190818152602001828054610adf90611bba565b8015610b2c5780601f10610b0157610100808354040283529160200191610b2c565b820191906000526020600020905b815481529060010190602001808311610b0f57829003601f168201915b505050505090806004018054610b4190611bba565b80601f0160208091040260200160405190810160405280929190818152602001828054610b6d90611bba565b8015610bba5780601f10610b8f57610100808354040283529160200191610bba565b820191906000526020600020905b815481529060010190602001808311610b9d57829003601f168201915b505050505090806005018054610bcf90611bba565b80601f0160208091040260200160405190810160405280929190818152602001828054610bfb90611bba565b8015610c485780601f10610c1d57610100808354040283529160200191610c48565b820191906000526020600020905b815481529060010190602001808311610c2b57829003601f168201915b5050505050908060060154908060070160009054906101000a900460ff16908060070160019054906101000a900460ff1690806008018054610c8990611bba565b80601f0160208091040260200160405190810160405280929190818152602001828054610cb590611bba565b8015610d025780601f10610cd757610100808354040283529160200191610d02565b820191906000526020600020905b815481529060010190602001808311610ce557829003601f168201915b505050505090508a565b60026020528160005260406000208181548110610d2857600080fd5b90600052602060002001600091509150505481565b600054831115610d82576040517f08c379a0000000000000000000000000000000000000000000000000000000008152600401610d7990611a93565b60405180910390fd5b6001600084815260200190815260200160002060070160009054906101000a900460ff1615610de6576040517f08c379a0000000000000000000000000000000000000000000000000000000008152600401610ddd90611c37565b60405180910390fd5b600060016000858152602001908152602001600020905060018160070160006101000a81548160ff02191690831515021790555082816004019081610e2b9190611e03565b5081816008019081610e3d9190611e03565b50600360003373ffffffffffffffffffffffffffffffffffffffff1673ffffffffffffffffffffffffffffffffffffffff1681526020019081526020016000208490806001815401808255809150506001900390600052602060002001600090919091909150553373ffffffffffffffffffffffffffffffffffffffff16847f92022499f0b7176e73d1c6cad3972003a256210899adf2e2a6541e97887360aa60405160405180910390a350505050565b60003411610f31576040517f08c379a0000000000000000000000000000000000000000000000000000000008152600401610f2890611f47565b60405180910390fd5b600080815480929190610f4390611f96565b919050555060405180610140016040528060005481526020013373ffffffffffffffffffffffffffffffffffffffff1681526020018681526020018581526020018481526020018381526020013481526020016000151581526020016000151581526020018281525060016000805481526020019081526020016000206000820151816000015560208201518160010160006101000a81548173ffffffffffffffffffffffffffffffffffffffff021916908373ffffffffffffffffffffffffffffffffffffffff16021790555060408201518160020190816110269190611e03565b50606082015181600301908161103c9190611e03565b5060808201518160040190816110529190611e03565b5060a08201518160050190816110689190611e03565b5060c0820151816006015560e08201518160070160006101000a81548160ff0219169083151502179055506101008201518160070160016101000a81548160ff0219169083151502179055506101208201518160080190816110ca9190611e03565b50905050600260003373ffffffffffffffffffffffffffffffffffffffff1673ffffffffffffffffffffffffffffffffffffffff16815260200190815260200160002060005490806001815401808255809150506001900390600052602060002001600090919091909150553373ffffffffffffffffffffffffffffffffffffffff166000547fa2f12a929555c86512df4afffcb9b220bd57ee1d2e90becdd57609dd56d8b6698760405161117f9190611fde565b60405180910390a35050505050565b60405180610140016040528060008152602001600073ffffffffffffffffffffffffffffffffffffffff1681526020016060815260200160608152602001606081526020016060815260200160008152602001600015158152602001600015158152602001606081525090565b6000604051905090565b600080fd5b600080fd5b6000819050919050565b6112228161120f565b811461122d57600080fd5b50565b60008135905061123f81611219565b92915050565b600073ffffffffffffffffffffffffffffffffffffffff82169050919050565b600061127082611245565b9050919050565b61128081611265565b811461128b57600080fd5b50565b60008135905061129d81611277565b92915050565b600080604083850312156112ba576112b9611205565b5b60006112c885828601611230565b92505060206112d98582860161128e565b9150509250929050565b6000602082840312156112f9576112f8611205565b5b60006113078482850161128e565b91505092915050565b600081519050919050565b600082825260208201905092915050565b6000819050602082019050919050565b6113458161120f565b82525050565b6000611357838361133c565b60208301905092915050565b6000602082019050919050565b600061137b82611310565b611385818561131b565b93506113908361132c565b8060005b838110156113c15781516113a8888261134b565b97506113b383611363565b925050600181019050611394565b5085935050505092915050565b600060208201905081810360008301526113e88184611370565b905092915050565b60006020828403121561140657611405611205565b5b600061141484828501611230565b91505092915050565b61142681611265565b82525050565b600081519050919050565b600082825260208201905092915050565b60005b8381101561146657808201518184015260208101905061144b565b60008484015250505050565b6000601f19601f8301169050919050565b600061148e8261142c565b6114988185611437565b93506114a8818560208601611448565b6114b181611472565b840191505092915050565b60008115159050919050565b6114d1816114bc565b82525050565b6000610140830160008301516114f0600086018261133c565b506020830151611503602086018261141d565b506040830151848203604086015261151b8282611483565b915050606083015184820360608601526115358282611483565b9150506080830151848203608086015261154f8282611483565b91505060a083015184820360a08601526115698282611483565b91505060c083015161157e60c086018261133c565b5060e083015161159160e08601826114c8565b506101008301516115a66101008601826114c8565b506101208301518482036101208601526115c08282611483565b9150508091505092915050565b600060208201905081810360008301526115e781846114d7565b905092915050565b6000806040838503121561160657611605611205565b5b60006116148582860161128e565b925050602061162585828601611230565b9150509250929050565b6116388161120f565b82525050565b6000602082019050611653600083018461162f565b92915050565b61166281611265565b82525050565b600082825260208201905092915050565b60006116848261142c565b61168e8185611668565b935061169e818560208601611448565b6116a781611472565b840191505092915050565b6116bb816114bc565b82525050565b6000610140820190506116d7600083018d61162f565b6116e4602083018c611659565b81810360408301526116f6818b611679565b9050818103606083015261170a818a611679565b9050818103608083015261171e8189611679565b905081810360a08301526117328188611679565b905061174160c083018761162f565b61174e60e08301866116b2565b61175c6101008301856116b2565b81810361012083015261176f8184611679565b90509b9a5050505050505050505050565b600080fd5b600080fd5b7f4e487b7100000000000000000000000000000000000000000000000000000000600052604160045260246000fd5b6117c282611472565b810181811067ffffffffffffffff821117156117e1576117e061178a565b5b80604052505050565b60006117f46111fb565b905061180082826117b9565b919050565b600067ffffffffffffffff8211156118205761181f61178a565b5b61182982611472565b9050602081019050919050565b82818337600083830152505050565b600061185861185384611805565b6117ea565b90508281526020810184848401111561187457611873611785565b5b61187f848285611836565b509392505050565b600082601f83011261189c5761189b611780565b5b81356118ac848260208601611845565b91505092915050565b6000806000606084860312156118ce576118cd611205565b5b60006118dc86828701611230565b935050602084013567ffffffffffffffff8111156118fd576118fc61120a565b5b61190986828701611887565b925050604084013567ffffffffffffffff81111561192a5761192961120a565b5b61193686828701611887565b9150509250925092565b600080600080600060a0868803121561195c5761195b611205565b5b600086013567ffffffffffffffff81111561197a5761197961120a565b5b61198688828901611887565b955050602086013567ffffffffffffffff8111156119a7576119a661120a565b5b6119b388828901611887565b945050604086013567ffffffffffffffff8111156119d4576119d361120a565b5b6119e088828901611887565b935050606086013567ffffffffffffffff811115611a0157611a0061120a565b5b611a0d88828901611887565b925050608086013567ffffffffffffffff811115611a2e57611a2d61120a565b5b611a3a88828901611887565b9150509295509295909350565b7f4974656d20646f6573206e6f7420657869737400000000000000000000000000600082015250565b6000611a7d601383611668565b9150611a8882611a47565b602082019050919050565b60006020820190508181036000830152611aac81611a70565b9050919050565b7f4f6e6c79206f776e65722063616e20636f6e6669726d2072657475726e000000600082015250565b6000611ae9601d83611668565b9150611af482611ab3565b602082019050919050565b60006020820190508181036000830152611b1881611adc565b9050919050565b7f496e76616c6964206974656d2073746174650000000000000000000000000000600082015250565b6000611b55601283611668565b9150611b6082611b1f565b602082019050919050565b60006020820190508181036000830152611b8481611b48565b9050919050565b7f4e487b7100000000000000000000000000000000000000000000000000000000600052602260045260246000fd5b60006002820490506001821680611bd257607f821691505b602082108103611be557611be4611b8b565b5b50919050565b7f4974656d20616c7265616479206d61726b656420617320666f756e6400000000600082015250565b6000611c21601c83611668565b9150611c2c82611beb565b602082019050919050565b60006020820190508181036000830152611c5081611c14565b9050919050565b60008190508160005260206000209050919050565b60006020601f8301049050919050565b600082821b905092915050565b600060088302611cb97fffffffffffffffffffffffffffffffffffffffffffffffffffffffffffffffff82611c7c565b611cc38683611c7c565b95508019841693508086168417925050509392505050565b6000819050919050565b6000611d00611cfb611cf68461120f565b611cdb565b61120f565b9050919050565b6000819050919050565b611d1a83611ce5565b611d2e611d2682611d07565b848454611c89565b825550505050565b600090565b611d43611d36565b611d4e818484611d11565b505050565b5b81811015611d7257611d67600082611d3b565b600181019050611d54565b5050565b601f821115611db757611d8881611c57565b611d9184611c6c565b81016020851015611da0578190505b611db4611dac85611c6c565b830182611d53565b50505b505050565b600082821c905092915050565b6000611dda60001984600802611dbc565b1980831691505092915050565b6000611df38383611dc9565b9150826002028217905092915050565b611e0c8261142c565b67ffffffffffffffff811115611e2557611e2461178a565b5b611e2f8254611bba565b611e3a828285611d76565b600060209050601f831160018114611e6d5760008415611e5b578287015190505b611e658582611de7565b865550611ecd565b601f198416611e7b86611c57565b60005b82811015611ea357848901518255600182019150602085019450602081019050611e7e565b86831015611ec05784890151611ebc601f891682611dc9565b8355505b6001600288020188555050505b505050505050565b7f426f756e747920616d6f756e74206d757374206265206772656174657220746860008201527f616e203000000000000000000000000000000000000000000000000000000000602082015250565b6000611f31602483611668565b9150611f3c82611ed5565b604082019050919050565b60006020820190508181036000830152611f6081611f24565b9050919050565b7f4e487b7100000000000000000000000000000000000000000000000000000000600052601160045260246000fd5b6000611fa18261120f565b91507fffffffffffffffffffffffffffffffffffffffffffffffffffffffffffffffff8203611fd357611fd2611f67565b5b600182019050919050565b60006020820190508181036000830152611ff88184611679565b90509291505056fea2646970667358221220887361cb708d6f8d811bcf7a1c17e801678fa383ec9633ac51a68abc373ecd5064736f6c63430008130033",
  "linkReferences": {},
  "deployedLinkReferences": {}
}